{
  "address": "0x8f6C3F3192026486ae4064EC8fED3A0e5390f3Ee",
  "abi": [
    {
      "inputs": [
        {
          "internalType": "address",
          "name": "vrfCordinatorV2",
          "type": "address"
        },
        {
          "internalType": "uint256",
          "name": "entranceFee",
          "type": "uint256"
        },
        {
          "internalType": "bytes32",
          "name": "gasLane",
          "type": "bytes32"
        },
        {
          "internalType": "uint32",
          "name": "callbackGasLimit",
          "type": "uint32"
        },
        {
          "internalType": "uint64",
          "name": "subscriptionId",
          "type": "uint64"
        },
        {
          "internalType": "uint32",
          "name": "interval",
          "type": "uint32"
        }
      ],
      "stateMutability": "nonpayable",
      "type": "constructor"
    },
    {
      "inputs": [
        {
          "internalType": "address",
          "name": "have",
          "type": "address"
        },
        {
          "internalType": "address",
          "name": "want",
          "type": "address"
        }
      ],
      "name": "OnlyCoordinatorCanFulfill",
      "type": "error"
    },
    {
      "inputs": [],
      "name": "Raffle_TransferFailed",
      "type": "error"
    },
    {
      "inputs": [
        {
          "internalType": "uint256",
          "name": "currentBalance",
          "type": "uint256"
        },
        {
          "internalType": "uint256",
          "name": "numPlayers",
          "type": "uint256"
        },
        {
          "internalType": "uint256",
          "name": "raffleState",
          "type": "uint256"
        }
      ],
      "name": "Raffle_UpKeepNotNeeded",
      "type": "error"
    },
    {
      "inputs": [],
      "name": "Raffle__NotEnoughETHEntered",
      "type": "error"
    },
    {
      "inputs": [],
      "name": "Raffle__NotOpen",
      "type": "error"
    },
    {
      "anonymous": false,
      "inputs": [
        {
          "indexed": true,
          "internalType": "address",
          "name": "player",
          "type": "address"
        }
      ],
      "name": "RaffleEnter",
      "type": "event"
    },
    {
      "anonymous": false,
      "inputs": [
        {
          "indexed": true,
          "internalType": "uint256",
          "name": "requestId",
          "type": "uint256"
        }
      ],
      "name": "RequestedRaffleWinner",
      "type": "event"
    },
    {
      "anonymous": false,
      "inputs": [
        {
          "indexed": true,
          "internalType": "address",
          "name": "winner",
          "type": "address"
        }
      ],
      "name": "WinnerPicked",
      "type": "event"
    },
    {
      "inputs": [
        {
          "internalType": "bytes",
          "name": "",
          "type": "bytes"
        }
      ],
      "name": "checkUpkeep",
      "outputs": [
        {
          "internalType": "bool",
          "name": "upKeepNeeded",
          "type": "bool"
        },
        {
          "internalType": "bytes",
          "name": "",
          "type": "bytes"
        }
      ],
      "stateMutability": "view",
      "type": "function"
    },
    {
      "inputs": [],
      "name": "enterRaffle",
      "outputs": [],
      "stateMutability": "payable",
      "type": "function"
    },
    {
      "inputs": [],
      "name": "getEntranceFee",
      "outputs": [
        {
          "internalType": "uint256",
          "name": "",
          "type": "uint256"
        }
      ],
      "stateMutability": "view",
      "type": "function"
    },
    {
      "inputs": [],
      "name": "getInterval",
      "outputs": [
        {
          "internalType": "uint256",
          "name": "",
          "type": "uint256"
        }
      ],
      "stateMutability": "view",
      "type": "function"
    },
    {
      "inputs": [],
      "name": "getLatestTimeStamp",
      "outputs": [
        {
          "internalType": "uint256",
          "name": "",
          "type": "uint256"
        }
      ],
      "stateMutability": "view",
      "type": "function"
    },
    {
      "inputs": [],
      "name": "getNumWords",
      "outputs": [
        {
          "internalType": "uint256",
          "name": "",
          "type": "uint256"
        }
      ],
      "stateMutability": "pure",
      "type": "function"
    },
    {
      "inputs": [],
      "name": "getNumberOfPlayers",
      "outputs": [
        {
          "internalType": "uint256",
          "name": "",
          "type": "uint256"
        }
      ],
      "stateMutability": "view",
      "type": "function"
    },
    {
      "inputs": [
        {
          "internalType": "uint256",
          "name": "index",
          "type": "uint256"
        }
      ],
      "name": "getPlayer",
      "outputs": [
        {
          "internalType": "address",
          "name": "",
          "type": "address"
        }
      ],
      "stateMutability": "view",
      "type": "function"
    },
    {
      "inputs": [],
      "name": "getRaffleState",
      "outputs": [
        {
          "internalType": "enum Raffle.RaffleState",
          "name": "",
          "type": "uint8"
        }
      ],
      "stateMutability": "view",
      "type": "function"
    },
    {
      "inputs": [],
      "name": "getRecentWinner",
      "outputs": [
        {
          "internalType": "address",
          "name": "",
          "type": "address"
        }
      ],
      "stateMutability": "view",
      "type": "function"
    },
    {
      "inputs": [],
      "name": "getRequestConfirmation",
      "outputs": [
        {
          "internalType": "uint256",
          "name": "",
          "type": "uint256"
        }
      ],
      "stateMutability": "pure",
      "type": "function"
    },
    {
      "inputs": [
        {
          "internalType": "bytes",
          "name": "",
          "type": "bytes"
        }
      ],
      "name": "performUpkeep",
      "outputs": [],
      "stateMutability": "nonpayable",
      "type": "function"
    },
    {
      "inputs": [
        {
          "internalType": "uint256",
          "name": "requestId",
          "type": "uint256"
        },
        {
          "internalType": "uint256[]",
          "name": "randomWords",
          "type": "uint256[]"
        }
      ],
      "name": "rawFulfillRandomWords",
      "outputs": [],
      "stateMutability": "nonpayable",
      "type": "function"
    }
  ],
  "transactionHash": "0xc02426673ac807a2982286624ffa5762fbb680c6fa4ddb3bc1928197452b20cb",
  "args": [
    "0x8204c193ade6a1bb59bef25b6a310e417953013f",
    "10000000000000000",
    "0x79d3d8832d904592c0bf9818b621522c988bb8b0c05cdc3b15aea1b6e8db0c15",
    "500000",
    "12334",
    "30"
  ],
  "numDeployments": 1,
  "solcInputHash": "63e8cb7fde1354719db906e847d31de7",
  "bytecode": "0x6101606040523480156200001257600080fd5b5060405162001857380380620018578339818101604052810190620000389190620001bc565b858073ffffffffffffffffffffffffffffffffffffffff1660808173ffffffffffffffffffffffffffffffffffffffff1660601b81525050508460a081815250508573ffffffffffffffffffffffffffffffffffffffff1660c08173ffffffffffffffffffffffffffffffffffffffff1660601b815250508360e081815250508167ffffffffffffffff166101008167ffffffffffffffff1660c01b815250508263ffffffff166101208163ffffffff1660e01b815250506000600160146101000a81548160ff02191690836001811115620001195762000118620002c4565b5b0217905550426002819055508063ffffffff166101408163ffffffff1660e01b815250505050505050506200037a565b6000815190506200015a81620002f8565b92915050565b600081519050620001718162000312565b92915050565b60008151905062000188816200032c565b92915050565b6000815190506200019f8162000346565b92915050565b600081519050620001b68162000360565b92915050565b60008060008060008060c08789031215620001dc57620001db620002f3565b5b6000620001ec89828a0162000149565b9650506020620001ff89828a0162000177565b95505060406200021289828a0162000160565b94505060606200022589828a016200018e565b93505060806200023889828a01620001a5565b92505060a06200024b89828a016200018e565b9150509295509295509295565b6000620002658262000276565b9050919050565b6000819050919050565b600073ffffffffffffffffffffffffffffffffffffffff82169050919050565b6000819050919050565b600063ffffffff82169050919050565b600067ffffffffffffffff82169050919050565b7f4e487b7100000000000000000000000000000000000000000000000000000000600052602160045260246000fd5b600080fd5b620003038162000258565b81146200030f57600080fd5b50565b6200031d816200026c565b81146200032957600080fd5b50565b620003378162000296565b81146200034357600080fd5b50565b6200035181620002a0565b81146200035d57600080fd5b50565b6200036b81620002b0565b81146200037757600080fd5b50565b60805160601c60a05160c05160601c60e0516101005160c01c6101205160e01c6101405160e01c61145e620003f9600039600081816107e9015261085d015260006106a50152600061068201526000610661015260006106250152600081816102fa01526103f7015260008181610337015261038b015261145e6000f3fe6080604052600436106100c25760003560e01c8063473f1ddc1161007f57806391ad27b41161005957806391ad27b414610238578063ca6a9ef814610263578063e55ae4e81461028e578063fd6673f5146102cb576100c2565b8063473f1ddc146101a457806353a2c19a146101cf5780636e04ff0d146101fa576100c2565b806309bc33a7146100c7578063115cbaf5146100f25780631fe543e31461011d5780632cfcc53914610146578063320229eb146101505780634585e33b1461017b575b600080fd5b3480156100d357600080fd5b506100dc6102f6565b6040516100e99190611064565b60405180910390f35b3480156100fe57600080fd5b5061010761031e565b6040516101149190611049565b60405180910390f35b34801561012957600080fd5b50610144600480360381019061013f9190610e3d565b610335565b005b61014e6103f5565b005b34801561015c57600080fd5b50610165610564565b6040516101729190611064565b60405180910390f35b34801561018757600080fd5b506101a2600480360381019061019d9190610d4d565b61056e565b005b3480156101b057600080fd5b506101b961076d565b6040516101c69190610f82565b60405180910390f35b3480156101db57600080fd5b506101e4610797565b6040516101f19190611064565b60405180910390f35b34801561020657600080fd5b50610221600480360381019061021c9190610d9a565b6107a6565b60405161022f929190610fc6565b60405180910390f35b34801561024457600080fd5b5061024d610859565b60405161025a9190611064565b60405180910390f35b34801561026f57600080fd5b50610278610887565b6040516102859190611064565b60405180910390f35b34801561029a57600080fd5b506102b560048036038101906102b09190610de3565b610894565b6040516102c29190610f82565b60405180910390f35b3480156102d757600080fd5b506102e06108db565b6040516102ed9190611064565b60405180910390f35b60007f0000000000000000000000000000000000000000000000000000000000000000905090565b6000600160149054906101000a900460ff16905090565b7f000000000000000000000000000000000000000000000000000000000000000073ffffffffffffffffffffffffffffffffffffffff163373ffffffffffffffffffffffffffffffffffffffff16146103e757337f00000000000000000000000000000000000000000000000000000000000000006040517f1cf993f40000000000000000000000000000000000000000000000000000000081526004016103de929190610f9d565b60405180910390fd5b6103f182826108e7565b5050565b7f000000000000000000000000000000000000000000000000000000000000000034101561044f576040517fbd4e069500000000000000000000000000000000000000000000000000000000815260040160405180910390fd5b600060018111156104635761046261133e565b5b600160149054906101000a900460ff1660018111156104855761048461133e565b5b146104bc576040517f1425571c00000000000000000000000000000000000000000000000000000000815260040160405180910390fd5b6000339080600181540180825580915050600190039060005260206000200160009091909190916101000a81548173ffffffffffffffffffffffffffffffffffffffff021916908373ffffffffffffffffffffffffffffffffffffffff1602179055503373ffffffffffffffffffffffffffffffffffffffff167f0805e1d667bddb8a95f0f09880cf94f403fb596ce79928d9f29b74203ba284d460405160405180910390a2565b6000600254905090565b6000610588604051806020016040528060008152506107a6565b509050806105f75747600080549050600160149054906101000a900460ff1660018111156105b9576105b861133e565b5b6040517fc61de3e10000000000000000000000000000000000000000000000000000000081526004016105ee9392919061107f565b60405180910390fd5b60018060146101000a81548160ff0219169083600181111561061c5761061b61133e565b5b021790555060007f000000000000000000000000000000000000000000000000000000000000000073ffffffffffffffffffffffffffffffffffffffff16635d3b1d307f00000000000000000000000000000000000000000000000000000000000000007f000000000000000000000000000000000000000000000000000000000000000060037f000000000000000000000000000000000000000000000000000000000000000060016040518663ffffffff1660e01b81526004016106e6959493929190610ff6565b602060405180830381600087803b15801561070057600080fd5b505af1158015610714573d6000803e3d6000fd5b505050506040513d601f19601f820116820180604052508101906107389190610e10565b9050807fcd6e45c8998311cab7e9d4385596cac867e20a0587194b954fa3a731c93ce78b60405160405180910390a250505050565b6000600160009054906101000a900473ffffffffffffffffffffffffffffffffffffffff16905090565b6000600163ffffffff16905090565b600060606000600160149054906101000a900460ff1660018111156107ce576107cd61133e565b5b600060018111156107e2576107e161133e565b5b14905060007f000000000000000000000000000000000000000000000000000000000000000063ffffffff166002544261081c919061115f565b1190506000806000805490501190506000804711905083801561083c5750825b80156108455750815b801561084e5750805b955050505050915091565b60007f000000000000000000000000000000000000000000000000000000000000000063ffffffff16905090565b6000600361ffff16905090565b60008082815481106108a9576108a861136d565b5b9060005260206000200160009054906101000a900473ffffffffffffffffffffffffffffffffffffffff169050919050565b60008080549050905090565b60008080549050826000815181106109025761090161136d565b5b602002602001015161091491906112af565b9050600080828154811061092b5761092a61136d565b5b9060005260206000200160009054906101000a900473ffffffffffffffffffffffffffffffffffffffff16905080600160006101000a81548173ffffffffffffffffffffffffffffffffffffffff021916908373ffffffffffffffffffffffffffffffffffffffff1602179055506000600160146101000a81548160ff021916908360018111156109bf576109be61133e565b5b0217905550600067ffffffffffffffff8111156109df576109de61139c565b5b604051908082528060200260200182016040528015610a0d5781602001602082028036833780820191505090505b5060009080519060200190610a23929190610b18565b504260028190555060008173ffffffffffffffffffffffffffffffffffffffff1647604051610a5190610f6d565b60006040518083038185875af1925050503d8060008114610a8e576040519150601f19603f3d011682016040523d82523d6000602084013e610a93565b606091505b5050905080610ace576040517fba31c4f300000000000000000000000000000000000000000000000000000000815260040160405180910390fd5b8173ffffffffffffffffffffffffffffffffffffffff167f5b690ec4a06fe979403046eaeea5b3ce38524683c3001f662c8b5a829632f7df60405160405180910390a25050505050565b828054828255906000526020600020908101928215610b91579160200282015b82811115610b905782518260006101000a81548173ffffffffffffffffffffffffffffffffffffffff021916908373ffffffffffffffffffffffffffffffffffffffff16021790555091602001919060010190610b38565b5b509050610b9e9190610ba2565b5090565b5b80821115610bbb576000816000905550600101610ba3565b5090565b6000610bd2610bcd846110db565b6110b6565b90508083825260208201905082856020860282011115610bf557610bf46113d5565b5b60005b85811015610c255781610c0b8882610d23565b845260208401935060208301925050600181019050610bf8565b5050509392505050565b6000610c42610c3d84611107565b6110b6565b905082815260208101848484011115610c5e57610c5d6113da565b5b610c6984828561123c565b509392505050565b600082601f830112610c8657610c856113d0565b5b8135610c96848260208601610bbf565b91505092915050565b60008083601f840112610cb557610cb46113d0565b5b8235905067ffffffffffffffff811115610cd257610cd16113cb565b5b602083019150836001820283011115610cee57610ced6113d5565b5b9250929050565b600082601f830112610d0a57610d096113d0565b5b8135610d1a848260208601610c2f565b91505092915050565b600081359050610d3281611411565b92915050565b600081519050610d4781611411565b92915050565b60008060208385031215610d6457610d636113e4565b5b600083013567ffffffffffffffff811115610d8257610d816113df565b5b610d8e85828601610c9f565b92509250509250929050565b600060208284031215610db057610daf6113e4565b5b600082013567ffffffffffffffff811115610dce57610dcd6113df565b5b610dda84828501610cf5565b91505092915050565b600060208284031215610df957610df86113e4565b5b6000610e0784828501610d23565b91505092915050565b600060208284031215610e2657610e256113e4565b5b6000610e3484828501610d38565b91505092915050565b60008060408385031215610e5457610e536113e4565b5b6000610e6285828601610d23565b925050602083013567ffffffffffffffff811115610e8357610e826113df565b5b610e8f85828601610c71565b9150509250929050565b610ea281611193565b82525050565b610eb1816111a5565b82525050565b610ec0816111b1565b82525050565b6000610ed182611138565b610edb8185611143565b9350610eeb81856020860161124b565b610ef4816113e9565b840191505092915050565b610f088161122a565b82525050565b6000610f1b600083611154565b9150610f26826113fa565b600082019050919050565b610f3a816111ce565b82525050565b610f49816111fc565b82525050565b610f5881611206565b82525050565b610f6781611216565b82525050565b6000610f7882610f0e565b9150819050919050565b6000602082019050610f976000830184610e99565b92915050565b6000604082019050610fb26000830185610e99565b610fbf6020830184610e99565b9392505050565b6000604082019050610fdb6000830185610ea8565b8181036020830152610fed8184610ec6565b90509392505050565b600060a08201905061100b6000830188610eb7565b6110186020830187610f5e565b6110256040830186610f31565b6110326060830185610f4f565b61103f6080830184610f4f565b9695505050505050565b600060208201905061105e6000830184610eff565b92915050565b60006020820190506110796000830184610f40565b92915050565b60006060820190506110946000830186610f40565b6110a16020830185610f40565b6110ae6040830184610f40565b949350505050565b60006110c06110d1565b90506110cc828261127e565b919050565b6000604051905090565b600067ffffffffffffffff8211156110f6576110f561139c565b5b602082029050602081019050919050565b600067ffffffffffffffff8211156111225761112161139c565b5b61112b826113e9565b9050602081019050919050565b600081519050919050565b600082825260208201905092915050565b600081905092915050565b600061116a826111fc565b9150611175836111fc565b925082821015611188576111876112e0565b5b828203905092915050565b600061119e826111dc565b9050919050565b60008115159050919050565b6000819050919050565b60008190506111c9826113fd565b919050565b600061ffff82169050919050565b600073ffffffffffffffffffffffffffffffffffffffff82169050919050565b6000819050919050565b600063ffffffff82169050919050565b600067ffffffffffffffff82169050919050565b6000611235826111bb565b9050919050565b82818337600083830152505050565b60005b8381101561126957808201518184015260208101905061124e565b83811115611278576000848401525b50505050565b611287826113e9565b810181811067ffffffffffffffff821117156112a6576112a561139c565b5b80604052505050565b60006112ba826111fc565b91506112c5836111fc565b9250826112d5576112d461130f565b5b828206905092915050565b7f4e487b7100000000000000000000000000000000000000000000000000000000600052601160045260246000fd5b7f4e487b7100000000000000000000000000000000000000000000000000000000600052601260045260246000fd5b7f4e487b7100000000000000000000000000000000000000000000000000000000600052602160045260246000fd5b7f4e487b7100000000000000000000000000000000000000000000000000000000600052603260045260246000fd5b7f4e487b7100000000000000000000000000000000000000000000000000000000600052604160045260246000fd5b600080fd5b600080fd5b600080fd5b600080fd5b600080fd5b600080fd5b6000601f19601f8301169050919050565b50565b6002811061140e5761140d61133e565b5b50565b61141a816111fc565b811461142557600080fd5b5056fea2646970667358221220015014d47240d2b80663366e969a04feee28d30b8940d5564a36ab038a0fc5e564736f6c63430008070033",
  "devdoc": {
    "kind": "dev",
    "methods": {
      "checkUpkeep(bytes)": {
        "details": "this is the functio that chainlink keepers node call they look for the `upKeepNeeded` to return true the following should be true in order to return true 1. The time interval should have passed 2. the lottery should have at least 1 player and have some ETH 3. Our subsription is funded with LINK the lottery should be in an \"open\" state"
      }
    },
    "version": 1
  },
  "userdoc": {
    "kind": "user",
    "methods": {},
    "version": 1
  },
  "storageLayout": {
    "storage": [
      {
        "astId": 909,
        "contract": "contracts/Raffle.sol:Raffle",
        "label": "s_players",
        "offset": 0,
        "slot": "0",
        "type": "t_array(t_address_payable)dyn_storage"
      },
      {
        "astId": 926,
        "contract": "contracts/Raffle.sol:Raffle",
        "label": "s_recentWinner",
        "offset": 0,
        "slot": "1",
        "type": "t_address"
      },
      {
        "astId": 929,
        "contract": "contracts/Raffle.sol:Raffle",
        "label": "s_raffleState",
        "offset": 20,
        "slot": "1",
        "type": "t_enum(RaffleState)904"
      },
      {
        "astId": 931,
        "contract": "contracts/Raffle.sol:Raffle",
        "label": "s_lastTimeStamp",
        "offset": 0,
        "slot": "2",
        "type": "t_uint256"
      }
    ],
    "types": {
      "t_address": {
        "encoding": "inplace",
        "label": "address",
        "numberOfBytes": "20"
      },
      "t_address_payable": {
        "encoding": "inplace",
        "label": "address payable",
        "numberOfBytes": "20"
      },
      "t_array(t_address_payable)dyn_storage": {
        "base": "t_address_payable",
        "encoding": "dynamic_array",
        "label": "address payable[]",
        "numberOfBytes": "32"
      },
      "t_enum(RaffleState)904": {
        "encoding": "inplace",
        "label": "enum Raffle.RaffleState",
        "numberOfBytes": "1"
      },
      "t_uint256": {
        "encoding": "inplace",
        "label": "uint256",
        "numberOfBytes": "32"
      }
    }
  }
}